:020000040800F2
:1000000000500020096B00084D6B00084D6B000884
:100010004D6B00084D6B00084D6B000800000000A0
:100020000000000000000000000000004D6B000810
:100030004D6B0008000000004D6B0008896D000842
:100040004D6B00084D6B00084D6B00084D6B0008B0
:100050004D6B00084D6B00084D6B00084D6B0008A0
:100060004D6B00084D6B00084D6B00084D6B000890
:100070004D6B0008ED5E00084D6B00084D6B0008ED
:100080004D6B00084D6B0008055500084D6B0008CE
:100090004D6B00084D6B00084D6B00084D6B000860
:1000A0004D6B00084D6B00084D6B00084D6B000850
:1000B0004D6B0008C16A0008E56A00084D6B000836
:1000C0004D6B00084D6B00084D6B00084D6B000830
:1000D0004D6B00084D6B00084D6B00084D6B000820
:1000E0004D6B00084D6B00084D6B000800000000D0
:1000F0000000000000000000000000000000000000
:0C01000000000000000000005FF808F1A3
:10010C0080B483B000AF78604FF46D43CEF200033F
:10011C007A6842F0BE6242F42022DA6007F10C07E2
:10012C00BD4680BC704700BF80B487B000AF78601C
:10013C004FF000037B614FF000033B614FF00F0366
:10014C00FB607B68DB78002B47D04FF46D43CEF21D
:10015C000003DB686FEA030303F4E0634FEA132345
:10016C007B617B69C3F104033B617B69FA6822FA0A
:10017C0003F3FB607B685B781A463B6902FA03F376
:10018C007B617B689B781A46FB6813407A69134342
:10019C007B617B694FEA03137B614FF46143CEF2C1
:1001AC0000037A68127811467A69D2B25B1883F828
:1001BC0000234FF46143CEF200037A6812784FEAC1
:1001CC005212D2B27968097801F01F014FF0010088
:1001DC0000FA01F143F8221014E04FF46143CEF21F
:1001EC0000037A6812784FEA5212D2B27968097811
:1001FC0001F01F014FF0010000FA01F102F12002A1
:10020C0043F8221007F11C07BD4680BC704700BFA5
:10021C0080B483B000AF786039604FF46D43CEF298
:10022C0000033A6822F0604222F07F0279680A43A8
:10023C009A6007F10C07BD4680BC704780B483B050
:10024C0000AF02460B46FA71BB71BB79002B0DD087
:10025C004FF46D43CEF200034FF46D42CEF2000228
:10026C0012691146FA790A431A610EE04FF46D4394
:10027C00CEF200034FF46D42CEF200021269114629
:10028C00FA796FEA02020A401A6107F10C07BD46BF
:10029C0080BC704780B483B000AF78607B68042B5F
:1002AC000CD14EF21003CEF200034EF21002CEF23D
:1002BC000002126842F004021A600BE04EF21003C6
:1002CC00CEF200034EF21002CEF20002126822F0BF
:1002DC0004021A6007F10C07BD4680BC704700BFD2
:1002EC0080B582B000AF78607A684FF41053C4F2D6
:1002FC0001039A420CD14FF400704FF0010101F050
:10030C006FFF4FF400704FF0000101F069FF26E021
:10031C007A684FF42053C4F201039A420CD14FF483
:10032C0080604FF0010101F05BFF4FF480604FF0F3
:10033C00000101F055FF12E07A684FF47053C4F2DB
:10034C0001039A420BD14FF400404FF0010101F030
:10035C0047FF4FF400404FF0000101F041FF07F15F
:10036C000807BD4680BD00BF80B485B000AF786083
:10037C0039604FF00003FB604FF00003FB727B68A9
:10038C005B68FB60FB6823F4702323F48073FB60D1
:10039C003B681A683B681B794FEA03231343FA68DE
:1003AC001343FB607B68FA685A607B689B68FB6050
:1003BC00FA684FF2FD73CFF6F1731340FB603B68A4
:1003CC00DA683B689B681A433B685B794FEA4303E6
:1003DC001343FA681343FB607B68FA689A607B6886
:1003EC00DB6AFB60FB6823F47003FB603B681B7CDF
:1003FC0003F1FF33DAB2FB7A1343FB72FB7A4FEA59
:10040C000353FA681343FB607B68FA68DA6207F1FE
:10041C001407BD4680BC704780B483B000AF7860D1
:10042C007B684FF000021A607B684FF000021A7173
:10043C007B684FF000025A717B684FF000029A60A3
:10044C007B684FF00002DA607B684FF001021A748F
:10045C0007F10C07BD4680BC704700BF80B483B069
:10046C0000AF78600B46FB70FB78002B06D07B68E6
:10047C009B6843F001027B689A6005E07B689B688F
:10048C0023F001027B689A6007F10C07BD4680BC23
:10049C00704700BF80B483B000AF78600B46FB7030
:1004AC00FB78002B06D07B689B6843F480727B68DA
:1004BC009A6005E07B689B6823F480727B689A6085
:1004CC0007F10C07BD4680BC704700BF80B485B0F7
:1004DC0000AF786013460A467A807B704FF00003B9
:1004EC00FB737B88FB737B78002B07D07B685B6886
:1004FC001A46FB7B1A437B685A6008E07B685B6892
:10050C001A46FB7B6FEA03031A407B685A6007F1BB
:10051C001407BD4680BC704780B483B000AF7860D0
:10052C007B689B6843F008027B689A6007F10C07B4
:10053C00BD4680BC704700BF80B485B000AF78600A
:10054C004FF00003FB737B689B6803F00803002BE0
:10055C0003D04FF00103FB7302E04FF00003FB7379
:10056C00FB7B184607F11407BD4680BC704700BFE3
:10057C0080B483B000AF78607B689B6843F0040262
:10058C007B689A6007F10C07BD4680BC704700BFC2
:10059C0080B485B000AF78604FF00003FB737B68CC
:1005AC009B6803F00403002B03D04FF00103FB7393
:1005BC0002E04FF00003FB73FB7B184607F11407B6
:1005CC00BD4680BC704700BF80B483B000AF78607C
:1005DC000B46FB70FB78002B06D07B689B6843F4C2
:1005EC00A0027B689A6005E07B689B6823F4A002FC
:1005FC007B689A6007F10C07BD4680BC704700BF52
:10060C0080B485B000AF78604FF00003FB737B685B
:10061C009B6803F48003002B03D04FF00103FB73A2
:10062C0002E04FF00003FB73FB7B184607F1140745
:10063C00BD4680BC704700BF80B485B000AF786009
:10064C000B46FB704FF00003FB604FF00003BB60E8
:10065C007B685B68FB60FB6823F46043FB60FB78A2
:10066C0003F1FF33BB60BB684FEA4333FA681343B3
:10067C00FB607B68FA685A6007F11407BD4680BCC2
:10068C00704700BF80B483B000AF78600B46FB703E
:10069C00FB78002B06D07B685B6843F400627B68B8
:1006AC005A6005E07B685B6823F400627B685A60E3
:1006BC0007F10C07BD4680BC704700BF80B485B005
:1006CC0000AF7860F970BA707B704FF00003FB607C
:1006DC004FF00003BB60FB78092B27D97B68DB68E4
:1006EC00FB60FA7813464FEA43039B18A3F11E03F1
:1006FC004FF0070202FA03F3BB60BB686FEA030317
:10070C00FA681340FB607978FA7813464FEA430392
:10071C009B18A3F11E0301FA03F3BB60FA68BB68D4
:10072C001343FB607B68FA68DA6022E07B681B6924
:10073C00FB60FA7813464FEA43039B184FF007020D
:10074C0002FA03F3BB60BB686FEA0303FA68134059
:10075C00FB607978FA7813464FEA43039B1801FA49
:10076C0003F3BB60FA68BB681343FB607B68FA68F1
:10077C001A61BB78062B27D87B685B6BFB60BB7858
:10078C0003F1FF3213464FEA83039B184FF01F020D
:10079C0002FA03F3BB60BB686FEA0303FA68134009
:1007AC00FB60F978BB7803F1FF3213464FEA830301
:1007BC009B1801FA03F3BB60FA68BB681343FB6038
:1007CC007B68FA685A6351E0BB780C2B27D87B689E
:1007DC001B6BFB60BA7813464FEA83039B18A3F19B
:1007EC0023034FF01F0202FA03F3BB60BB686FEAEE
:1007FC000303FA681340FB60F978BA7813464FEAA2
:10080C0083039B18A3F1230301FA03F3BB60FA687B
:10081C00BB681343FB607B68FA681A6326E07B684D
:10082C00DB6AFB60BA7813464FEA83039B18A3F18B
:10083C0041034FF01F0202FA03F3BB60BB686FEA7F
:10084C000303FA681340FB60F978BA7813464FEA51
:10085C0083039B18A3F1410301FA03F3BB60FA680D
:10086C00BB681343FB607B68FA68DA6207F1140714
:10087C00BD4680BC704700BF80B483B000AF7860C9
:10088C000B46FB70FB78002B06D07B689B6843F40F
:10089C0080127B689A6005E07B689B6823F4801269
:1008AC007B689A6007F10C07BD4680BC704700BF9F
:1008BC0080B483B000AF78607B68DB6C9BB2184669
:1008CC0007F10C07BD4680BC704700BF80B400AF79
:1008DC0042F24C43C4F201031B681846BD4680BC6F
:1008EC00704700BF80B483B000AF78600B46FB70DC
:1008FC00FB78002B06D07B685B6843F480627B68D6
:10090C005A6005E07B685B6823F480627B685A6000
:10091C0007F10C07BD4680BC704700BF80B483B0A4
:10092C0000AF78600B46FB70FB78002B06D07B6821
:10093C005B6843F480527B685A6005E07B685B68B7
:10094C0023F480527B685A6007F10C07BD4680BCCB
:10095C00704700BF80B485B000AF786039604FF04D
:10096C000003FB607B689B68FB60FB6823F4E0433F
:10097C00FB60FA683B681343FB607B68FA689A601B
:10098C0007F11407BD4680BC704700BF80B483B02C
:10099C0000AF78600B46FB70FB78002B06D07B68B1
:1009AC009B6843F400427B689A6005E07B689B6817
:1009BC0023F400427B689A6007F10C07BD4680BCAB
:1009CC00704700BF80B483B000AF78600B46FB70FB
:1009DC00FB78002B06D07B689B6843F402127B6883
:1009EC009A6005E07B689B6823F402127B689A602E
:1009FC0007F10C07BD4680BC704700BF80B485B0C2
:100A0C0000AF78604FF00003FB737B689B6803F4C6
:100A1C000013002B03D04FF00103FB7302E04FF0E7
:100A2C000003FB73FB7B184607F11407BD4680BC23
:100A3C00704700BF80B487B000AF7860F970BA70AF
:100A4C007B704FF000037B614FF000033B614FF074
:100A5C000003FB60FB78092B27D97B68DB687B6183
:100A6C00FA7813464FEA43039B18A3F11E034FF089
:100A7C00070202FA03F33B613B696FEA03037A69ED
:100A8C0013407B617978FA7813464FEA43039B183D
:100A9C00A3F11E0301FA03F33B617A693B6913432B
:100AAC007B617B687A69DA6022E07B681B697B6119
:100ABC00FA7813464FEA43039B184FF0070202FAE9
:100ACC0003F33B613B696FEA03037A6913407B6173
:100ADC007978FA7813464FEA43039B1801FA03F32B
:100AEC003B617A693B6913437B617B687A691A6164
:100AFC007B689B6B7B617B6903F440134FEA135358
:100B0C00FB60FB68DBB26FEA0303DAB2BB78D31885
:100B1C00DBB203F10303DBB21A4613464FEA83033D
:100B2C009B184FF01F0202FA03F33B613B696FEA1B
:100B3C0003037A6913407B61F978FB68DBB26FEAD7
:100B4C000303DAB2BB78D318DBB203F10303DBB2D5
:100B5C001A4613464FEA83039B1801FA03F33B61D1
:100B6C007A693B6913437B617B687A699A6307F105
:100B7C001C07BD4680BC704780B485B000AF786060
:100B8C000B46FB704FF00003FB604FF00003BB60A3
:100B9C007B689B6BFB60FB6823F44013FB60FB786A
:100BAC0003F1FF33BB60BB684FEA0353FA6813438E
:100BBC00FB607B68FA689A6307F11407BD4680BC3A
:100BCC00704700BF80B485B000AF786013460A460A
:100BDC00FA703B804FF00003FB607B68FB60FA7897
:100BEC00FB68D318FB60FB683A881A6007F114079E
:100BFC00BD4680BC704700BF80B485B000AF786044
:100C0C000B46FB704FF00003FB607B68FB60FA78CF
:100C1C00FB68D31803F12803FB60FB681B689BB2CD
:100C2C00184607F11407BD4680BC704780B485B0E8
:100C3C0000AF786039604FF00003FB607B685B6845
:100C4C00FB60FB6823F4400323F40073FB60FA6839
:100C5C003B681343FB607B68FA685A6007F1140722
:100C6C00BD4680BC704700BF80B483B000AF7860D5
:100C7C0013460A467A803B807A887B685A623A88A7
:100C8C007B689A6207F10C07BD4680BC704700BFB9
:100C9C0080B485B000AF78600B46FB704FF000035A
:100CAC00FB607B685B68FB60FB6823F01F03FB60E9
:100CBC00FB78FA681343FB607B68FA685A6007F1AB
:100CCC001407BD4680BC704780B483B000AF0346A8
:100CDC00FB71FB79002B0CD04FF41053C4F20103C1
:100CEC004FF41052C4F20102926842F400029A606E
:100CFC000BE04FF41053C4F201034FF41052C4F242
:100D0C000102926822F400029A6007F10C07BD46BA
:100D1C0080BC704780B485B000AF78600B46FB7028
:100D2C004FF00003FB737B681B681A46FB7813407B
:100D3C00002B03D04FF00103FB7302E04FF00003D4
:100D4C00FB73FB7B184607F11407BD4680BC70474C
:100D5C0080B483B000AF78600B46FB70FB786FEA11
:100D6C0003027B681A6007F10C07BD4680BC704714
:100D7C0080B487B000AF78600B467B804FF00003E7
:100D8C00FB754FF000033B614FF00003FB607B8869
:100D9C004FEA13239BB23B617B685B681A467B88E6
:100DAC00DBB21340FB607B681B681A463B6913403F
:100DBC00002B06D0FB68002B03D04FF00103FB7512
:100DCC0002E04FF00003FB75FB7D184607F11C0792
:100DDC00BD4680BC704700BF80B485B000AF786062
:100DEC000B467B804FF00003FB737B884FEA132389
:100DFC009BB2FB73FB7B6FEA03027B681A6007F103
:100E0C001407BD4680BC704780B483B000AF7860D7
:100E1C007B681B681A464FF6FE7313407A681360A2
:100E2C007B684FF000021A607B684FF000025A603A
:100E3C007B684FF000029A607B684FF00002DA602A
:100E4C007A684FF00803C4F202039A420CD14FF0B7
:100E5C000003C4F202034FF00002C4F20202526813
:100E6C0042F00F025A60DAE07A684FF01C03C4F2C9
:100E7C0002039A420CD14FF00003C4F202034FF06C
:100E8C000002C4F20202526842F0F0025A60C6E05C
:100E9C007A684FF03003C4F202039A420CD14FF03F
:100EAC000003C4F202034FF00002C4F202025268C3
:100EBC0042F470625A60B2E07A684FF04403C4F2B4
:100ECC0002039A420CD14FF00003C4F202034FF01C
:100EDC000002C4F20202526842F470425A609EE070
:100EEC007A684FF05803C4F202039A420CD14FF0C7
:100EFC000003C4F202034FF00002C4F20202526873
:100F0C0042F470225A608AE07A684FF06C03C4F2A3
:100F1C0002039A420CD14FF00003C4F202034FF0CB
:100F2C000002C4F20202526842F470025A6076E087
:100F3C007A684FF08003C4F202039A420CD14FF04E
:100F4C000003C4F202034FF00002C4F20202526822
:100F5C0042F070625A6062E07A684FF48163C4F2C6
:100F6C0002039A420CD14FF48063C4F202034FF493
:100F7C008062C4F20202526842F00F025A604EE0E4
:100F8C007A6840F21C43C4F202039A420CD14FF42B
:100F9C008063C4F202034FF48062C4F2020252680E
:100FAC0042F0F0025A603AE07A684FF48663C4F279
:100FBC0002039A420CD14FF48063C4F202034FF443
:100FCC008062C4F20202526842F470625A6026E0F7
:100FDC007A6840F24443C4F202039A420CD14FF4B3
:100FEC008063C4F202034FF48062C4F202025268BE
:100FFC0042F470425A6012E07A684FF48B63C4F288
:10100C0002039A420BD14FF48063C4F202034FF4F3
:10101C008062C4F20202526842F470225A6007F1F4
:10102C000C07BD4680BC704780B485B000AF7860BB
:10103C0039604FF00003FB607B681B68FB60FB684A
:10104C0023F4FE4323F0F003FB603B689A683B6893
:10105C001B6A1A433B681B691A433B685B691A435A
:10106C003B689B691A433B68DB691A433B685B6AC4
:10107C001A433B689B6A1343FA681343FB607B6813
:10108C00FA681A603B68DA687B685A603B681A68D1
:10109C007B689A603B685A687B68DA6007F11407D2
:1010AC00BD4680BC704700BF80B483B000AF786091
:1010BC007B684FF000021A607B684FF000025A60A8
:1010CC007B684FF000029A607B684FF00002DA6098
:1010DC007B684FF000021A617B684FF000025A6186
:1010EC007B684FF000029A617B684FF00002DA6176
:1010FC007B684FF000021A627B684FF000025A6264
:10110C007B684FF000029A6207F10C07BD4680BC69
:10111C00704700BF80B483B000AF78600B46FB70A3
:10112C00FB78002B06D07B681B6843F001027B68C0
:10113C001A6007E07B681B681A464FF6FE73134073
:10114C007A68136007F10C07BD4680BC704700BF7E
:10115C0080B485B000AFF860B9601346FB71FB79C1
:10116C00002B07D0FB681B681A46BB681A43FB6848
:10117C001A6008E0FB681B681A46BB686FEA030339
:10118C001A40FB681A6007F11407BD4680BC704713
:10119C0080B483B000AF78600B467B807A887B6824
:1011AC005A6007F10C07BD4680BC704780B483B011
:1011BC0000AF78607B685B689BB2184607F10C0740
:1011CC00BD4680BC704700BF80B485B000AF78606E
:1011DC004FF00003FB734FF00003BB607B6803F020
:1011EC008053002B06D04FF48063C4F202031B68BB
:1011FC00BB6005E04FF00003C4F202031B68BB6048
:10120C00BA687B681340002B03D04FF00103FB73CB
:10121C0002E04FF00003FB73FB7B184607F1140749
:10122C00BD4680BC704700BF80B483B000AF78600F
:10123C007B6803F08053002B06D04FF48063C4F21C
:10124C0002037A685A6005E04FF00003C4F202030F
:10125C007A685A6007F10C07BD4680BC704700BF26
:10126C0080B485B000AF78604FF00003FB734FF093
:10127C000003BB607B6803F08053002B06D04FF457
:10128C008063C4F202031B68BB6005E04FF00003EF
:10129C00C4F202031B68BB60BA687B681340002B66
:1012AC0003D04FF00103FB7302E04FF00003FB731C
:1012BC00FB7B184607F11407BD4680BC704700BF86
:1012CC0080B483B000AF78607B6803F08053002B50
:1012DC0006D04FF48063C4F202037A685A6005E0CA
:1012EC004FF00003C4F202037A685A6007F10C074E
:1012FC00BD4680BC704700BF80B582B000AF78603F
:10130C007A684FF40063C4F201039A420CD14FF097
:10131C0004004FF0010100F063FF4FF004004FF0A8
:10132C00000100F05DFF76E07A684FF44063C4F290
:10133C0001039A420CD14FF008004FF0010100F06C
:10134C004FFF4FF008004FF0000100F049FF62E042
:10135C007A684FF48053C4F201039A420CD14FF0D7
:10136C0010004FF0010100F03BFF4FF010004FF068
:10137C00000100F035FF4EE07A684FF4A053C4F240
:10138C0001039A420CD14FF020004FF0010100F004
:10139C0027FF4FF020004FF0000100F021FF3AE052
:1013AC007A684FF4C053C4F201039A420CD14FF047
:1013BC0040004FF0010100F013FF4FF040004FF0E0
:1013CC00000100F00DFF26E07A684FF4E053C4F200
:1013DC0001039A420CD14FF080004FF0010100F054
:1013EC00FFFE4FF080004FF0000100F0F9FE12E01C
:1013FC007A684FF40053C4F201039A420BD14FF4B4
:10140C0080704FF0010100F0EBFE4FF480704FF054
:10141C00000100F0E5FE07F10807BD4680BD00BFE6
:10142C0080B500AF4FF001004FF0010100F0D8FE85
:10143C004FF001004FF0000100F0D2FE80BD00BF64
:10144C0080B489B000AF786039604FF00003FB6165
:10145C004FF000033B614FF00003BB614FF0000302
:10146C00FB604FF000037B614FF00003BB603B68F7
:10147C00DB7803F00F03FB613B68DB7803F01003B0
:10148C00002B04D03B689B78FA691343FB613B68E3
:10149C001B88DBB2002B4ED07B681B687B614FF046
:1014AC000003BB6141E0BB694FF0010202FA03F398
:1014BC00FB603B681B881A46FB6813403B613A692A
:1014CC00FB689A422DD1BB694FEA8303FB60FB6832
:1014DC004FF00F0202FA03F3BB60BB686FEA030321
:1014EC007A6913407B61FB68FA6902FA03F37A6943
:1014FC0013437B613B68DB78282B07D1BB694FF02A
:10150C00010202FA03F27B685A610AE03B68DB785D
:10151C00482B06D1BB694FF0010202FA03F27B683B
:10152C001A61BB6903F10103BB61BB69072BBAD913
:10153C007B687A691A603B681B88FF2B53D97B68E0
:10154C005B687B614FF00003BB6146E0BB6903F154
:10155C0008034FF0010202FA03F3FB603B681B889F
:10156C001A46FB6813403B613A69FB689A4230D1DA
:10157C00BB694FEA8303FB60FB684FF00F0202FA72
:10158C0003F3BB60BB686FEA03037A6913407B61AA
:10159C00FB68FA6902FA03F37A6913437B613B68CF
:1015AC00DB78282B08D1BB6903F108034FF001024B
:1015BC0002FA03F27B685A613B68DB78482B08D14E
:1015CC00BB6903F108034FF0010202FA03F27B68D6
:1015DC001A61BB6903F10103BB61BB69072BB5D968
:1015EC007B687A695A6007F12407BD4680BC704756
:1015FC0080B483B000AF78607B684FF6FF721A80BE
:10160C007B684FF002029A707B684FF00402DA702C
:10161C0007F10C07BD4680BC704700BF80B485B095
:10162C0000AF78600B467B804FF00003FB737B6848
:10163C009B681A467B881340002B03D04FF00103A4
:10164C00FB7302E04FF00003FB73FB7B184607F1C2
:10165C001407BD4680BC704780B483B000AF78607F
:10166C007B689B689BB2184607F10C07BD4680BC93
:10167C00704700BF80B485B000AF78600B467B80AC
:10168C004FF00003FB737B68DB681A467B881340C2
:10169C00002B03D04FF00103FB7302E04FF000036B
:1016AC00FB73FB7B184607F11407BD4680BC7047E3
:1016BC0080B483B000AF78607B68DB689BB218465F
:1016CC0007F10C07BD4680BC704700BF80B483B0E7
:1016DC0000AF78600B467B807A887B681A6107F1D3
:1016EC000C07BD4680BC704780B483B000AF7860F7
:1016FC000B467B807A887B685A6107F10C07BD46E4
:10170C0080BC704780B483B000AF786013460A4643
:10171C007A807B707B78002B03D07A887B681A6187
:10172C0002E07A887B685A6107F10C07BD4680BCE1
:10173C00704700BF80B483B000AF78600B467B80ED
:10174C007A887B68DA6007F10C07BD4680BC70476D
:10175C0080B485B000AF78600B467B804FF480334B
:10176C00FB607B88FA681343FB607B68FA689A61BC
:10177C007A887B689A617B68FA689A617B689B6956
:10178C00FB607B689B69FB6007F11407BD4680BC5E
:10179C00704700BF80B485B000AF02460B46FA71AB
:1017AC00BB714FF00003FB604FF00003C4F2010368
:1017BC001B68FB60FA684FF680731340FB60FB7983
:1017CC004FEA0313FA681343FB60BB79FA681343BF
:1017DC00FB604FF00003C4F20103FA681A6007F1D2
:1017EC001407BD4680BC704780B483B000AF03467D
:1017FC00FB714FF01C03C4F22023FA791A6007F135
:10180C000C07BD4680BC704780B487B000AF7860D1
:10181C000B46FB704FF000033B614FF00003FB6085
:10182C004FF000037B614FF00003BB607B68002B23
:10183C0006DA4FF00003C4F20103DB697B6105E0BB
:10184C004FF00003C4F201035B687B617B6803F417
:10185C0070234FEA1343BB607B684FEA03434FEAA4
:10186C0013433B617B6803F44013B3F5401F10D165
:10187C007B6923F070637B614FF00003C4F20103BA
:10188C004FF00002C4F20102526822F070625A60FA
:10189C0026E07B6803F48013002B10D0BB684FF05C
:1018AC00030202FA03F3FB60FB686FEA03037A6935
:1018BC0013407B617B6943F070637B6110E07B6854
:1018CC004FEA53534FEA03133A6902FA03F36FEAF0
:1018DC0003037A6913407B617B6943F070637B611E
:1018EC00FB78002B0AD07B684FEA53534FEA031363
:1018FC003A6902FA03F37A6913437B617B68002B24
:10190C0006DA4FF00003C4F201037A69DA6105E0EC
:10191C004FF00003C4F201037A695A6007F11C0707
:10192C00BD4680BC704700BF90B484B000AF024687
:10193C000B46FA71BB714FF00003FB60BB7903F0EF
:10194C0003034FEA83034FF00F0202FA03F3FB6029
:10195C004FF00003C4F20103BA794FEA9202D2B2FB
:10196C0010464FF00002C4F20102B9794FEA91011E
:10197C00C9B201F1020152F821201146FA686FEA4E
:10198C000202114000F1020243F822104FF0000352
:10199C00C4F20103BA794FEA9202D2B210464FF068
:1019AC000002C4F20102B9794FEA9101C9B201F106
:1019BC00020152F821201146FC79BA7902F0030297
:1019CC004FEA820204FA02F2114300F1020243F8D8
:1019DC00221007F11007BD4690BC704780B483B04D
:1019EC0000AF78604FF0DC03C4F220237A681A60F1
:1019FC0007F10C07BD4680BC704700BF80B400AF38
:101A0C004FF48053C4F202034FF48052C4F202022A
:101A1C00126842F001021A604FF48052C4F20202C2
:101A2C004FF48053C4F202035B6819464FF0000375
:101A3C00CFF6FF030B4053604FF48053C4F2020304
:101A4C004FF48052C4F20202126822F0847222F423
:101A5C0080321A604FF48053C4F202034FF4805268
:101A6C00C4F20202126822F480221A604FF48053EE
:101A7C00C4F202034FF48052C4F20202526822F400
:101A8C00FE025A604FF48053C4F202034FF41F025B
:101A9C009A60BD4680BC704780B483B000AF78605C
:101AAC004FF48053C4F202034FF48052C4F202028A
:101ABC00126822F480321A604FF48053C4F202038D
:101ACC004FF48052C4F20202126822F480221A608F
:101ADC007B68B3F5803F03D0B3F5802F0DD019E0B0
:101AEC004FF48053C4F202034FF48052C4F202024A
:101AFC00126842F480321A600DE04FF48053C4F245
:101B0C0002034FF48052C4F20202126842F4A02283
:101B1C001A6000E000BF07F10C07BD4680BC70479F
:101B2C0080B582B000AF4FF000033B604FF0000374
:101B3C00FB714FF00003BB714FF0310000F0D8FB8C
:101B4C000346BB713B6803F101033B603B68B3F593
:101B5C00A06F02D0BB79002BEED04FF0310000F01B
:101B6C00C7FB0346002B03D04FF00103FB7102E0CF
:101B7C004FF00003FB71FB79184607F10807BD46CF
:101B8C0080BD00BF80B485B000AF0346FB714FF041
:101B9C000003FB604FF48053C4F202031B68FB602C
:101BAC00FB6823F0F803FB60FB794FEAC303FA6888
:101BBC001343FB604FF48053C4F20203FA681A60BB
:101BCC0007F11407BD4680BC704700BF80B483B0DA
:101BDC0000AF0346FB714FF00003C4F24223FA79C5
:101BEC001A6007F10C07BD4680BC704780B485B005
:101BFC0000AF786039604FF00003FB604FF4805306
:101C0C00C4F202035B68FB60FB6823F47C13FB608B
:101C1C007A683B681343FA681343FB604FF48053B4
:101C2C00C4F20203FA685A6007F11407BD4680BC7F
:101C3C00704700BF80B483B000AF0346FB714FF018
:101C4C006003C4F24223FA791A6007F10C07BD460F
:101C5C0080BC704780B485B000AF78604FF0000353
:101C6C00FB604FF48053C4F202035B68FB60FB68BB
:101C7C0023F00303FB60FA687B681343FB604FF4AB
:101C8C008053C4F20203FA685A6007F11407BD4688
:101C9C0080BC704780B400AF4FF48053C4F2020391
:101CAC005B68DBB203F00C03DBB21846BD4680BCAC
:101CBC00704700BF80B485B000AF78604FF0000370
:101CCC00FB604FF48053C4F202035B68FB60FB685B
:101CDC0023F0F003FB60FA687B681343FB604FF45E
:101CEC008053C4F20203FA685A6007F11407BD4628
:101CFC0080BC704780B485B000AF78604FF00003B3
:101D0C00FB604FF48053C4F202035B68FB60FB681A
:101D1C0023F4E063FB60FA687B681343FB604FF4C9
:101D2C008053C4F20203FA685A6007F11407BD46E7
:101D3C0080BC704780B485B000AF78604FF0000372
:101D4C00FB604FF48053C4F202035B68FB60FB68DA
:101D5C0023F46053FB607B684FEAC303FA681343B8
:101D6C00FB604FF48053C4F20203FA685A6007F127
:101D7C001407BD4680BC704780B483B000AF0246E8
:101D8C000B46FA71BB71BB79002B0ED041F20903E3
:101D9C00C4F2020341F20902C4F202021278D1B277
:101DAC00FA790A43D2B21A7010E041F20903C4F274
:101DBC00020341F20902C4F202021278D1B2FA799A
:101DCC006FEA0202D2B20A40D2B21A7007F10C07C3
:101DDC00BD4680BC704700BF80B483B000AF786054
:101DEC004FF0D803C4F242237A681A6007F10C074B
:101DFC00BD4680BC704700BF80B485B000AF786032
:101E0C004FF00003FB604FF48053C4F202035B6895
:101E1C00FB60FB6823F44043FB60FA687B68134368
:101E2C00FB604FF48053C4F20203FA685A6007F166
:101E3C001407BD4680BC704780B483B000AF034626
:101E4C00FB714FF48153C4F202034FF000021A707D
:101E5C004FF48153C4F202034FF000021A70FB7965
:101E6C00012B02D0042B08D00FE04FF48153C4F2A5
:101E7C0002034FF001021A7008E04FF48153C4F2D0
:101E8C0002034FF005021A7000E000BF07F10C07C7
:101E9C00BD4680BC704700BF80B483B000AF034622
:101EAC00FB714FF49063C4F24223FA791A6007F184
:101EBC000C07BD4680BC704780B483B000AF78601F
:101ECC004FF48053C4F202034FF48052C4F2020266
:101EDC00126A11467A680A431A6207F10C07BD466A
:101EEC0080BC704780B483B000AF0346FB7140F2F6
:101EFC003C43C4F24223FA791A6007F10C07BD4641
:101F0C0080BC704780B487B000AF78604FF000039E
:101F1C007B614FF000033B614FF00003FB604FF01F
:101F2C000003BB604FF48053C4F202035B6803F000
:101F3C000C037B617B69042B0AD0082B0FD0002B80
:101F4C004DD17A684FF49053C0F27A0313604DE090
:101F5C007A684FF49053C0F27A03136046E04FF462
:101F6C008053C4F202035B6803F470133B614FF4BB
:101F7C008053C4F202035B6803F48033FB603B695B
:101F8C004FEA934303F102033B61FB68002B09D139
:101F9C003A694FF41063C0F23D0303FB02F27B6815
:101FAC001A6023E04FF48053C4F202035B6803F41D
:101FBC000033002B09D03A694FF41063C0F23D0393
:101FCC0003FB02F27B681A6010E03A694FF49053FD
:101FDC00C0F27A0303FB02F27B681A6006E07A68AF
:101FEC004FF49053C0F27A03136000BF4FF4805348
:101FFC00C4F202035B6803F0F0037B617B694FEA78
:10200C0013137B6140F20003C2F200037A699B1840
:10201C001B78DBB2BB607B681A68BB6822FA03F2E0
:10202C007B685A604FF48053C4F202035B6803F47C
:10203C00E0637B617B694FEA13237B6140F2000311
:10204C00C2F200037A699B181B78DBB2BB607B6819
:10205C005A68BB6822FA03F27B689A604FF480538B
:10206C00C4F202035B6803F460537B617B694FEA43
:10207C00D3237B6140F20003C2F200037A699B1800
:10208C001B78DBB2BB607B685A68BB6822FA03F230
:10209C007B68DA604FF48053C4F202035B6803F48C
:1020AC0040437B617B694FEA93337B6140F21003C1
:1020BC00C2F200037A699B181B78DBB2BB607B68A9
:1020CC00DA68BB68B2FBF3F27B681A6107F11C0794
:1020DC00BD4680BC704700BF80B483B000AF786051
:1020EC000B46FB70FB78002B0DD04FF48053C4F2E1
:1020FC0002034FF48052C4F20202526911467A680C
:10210C000A435A610EE04FF48053C4F202034FF4B9
:10211C008052C4F20202526911467A686FEA0202D6
:10212C000A405A6107F10C07BD4680BC704700BFDE
:10213C0080B483B000AF78600B46FB70FB78002B4B
:10214C000DD04FF48053C4F202034FF48052C4F20A
:10215C000202926911467A680A439A610EE04FF4C2
:10216C008053C4F202034FF48052C4F2020292690B
:10217C0011467A686FEA02020A409A6107F10C076D
:10218C00BD4680BC704700BF80B483B000AF7860A0
:10219C000B46FB70FB78002B0DD04FF48053C4F230
:1021AC0002034FF48052C4F20202D26911467A68DB
:1021BC000A43DA610EE04FF48053C4F202034FF489
:1021CC008052C4F20202D26911467A686FEA0202A6
:1021DC000A40DA6107F10C07BD4680BC704700BFAE
:1021EC0080B483B000AF78600B46FB70FB78002B9B
:1021FC000DD04FF48053C4F202034FF48052C4F25A
:10220C000202D26811467A680A43DA600EE04FF493
:10221C008053C4F202034FF48052C4F20202D2681B
:10222C0011467A686FEA02020A40DA6007F10C077D
:10223C00BD4680BC704700BF80B483B000AF7860EF
:10224C000B46FB70FB78002B0DD04FF48053C4F27F
:10225C0002034FF48052C4F20202126911467A68EA
:10226C000A431A610EE04FF48053C4F202034FF498
:10227C008052C4F20202126911467A686FEA0202B5
:10228C000A401A6107F10C07BD4680BC704700BFBD
:10229C0080B483B000AF0346FB714FF48863C4F283
:1022AC004223FA791A6007F10C07BD4680BC7047CF
:1022BC0080B483B000AF0346FB714FF04C03C4F203
:1022CC004223FA791A6007F10C07BD4680BC7047AF
:1022DC0080B483B000AF0346FB7141F20703C4F234
:1022EC000203FA791A7007F10C07BD4680BC7047DF
:1022FC0080B487B000AF0346FB714FF00003FB6066
:10230C004FF000037B614FF00003FB74FB794FEA45
:10231C005313DBB2FB60FB68012B06D14FF48053E7
:10232C00C4F202031B687B610FE0FB68022B06D131
:10233C004FF48053C4F202031B6A7B6105E04FF437
:10234C008053C4F202035B6A7B61FB7903F01F03C9
:10235C00FB60FB687A6922FA03F303F00103DBB23A
:10236C00002B03D04FF00103FB7402E04FF000038D
:10237C00FB74FB7C184607F11C07BD4680BC7047FC
:10238C0080B400AF4FF48053C4F202034FF4805278
:10239C00C4F20202526A42F080725A62BD4680BC9C
:1023AC00704700BF80B485B000AF0346FB714FF09F
:1023BC000003FB734FF48053C4F202039B681A466C
:1023CC00FB791340002B03D04FF00103FB7302E0A9
:1023DC004FF00003FB73FB7B184607F11407BD4657
:1023EC0080BC704780B483B000AF0346FB7141F2F0
:1023FC000A03C4F20203FA791A7007F10C07BD46FE
:10240C0080BC704780B582B000AF78607A684FF4BA
:10241C004053C4F201039A420CD14FF480504FF058
:10242C000101FFF7DDFE4FF480504FF00001FFF784
:10243C00D7FE26E07A684FF46053C4F200039A4248
:10244C000CD14FF480404FF00101FFF7F5FE4FF433
:10245C0080404FF00001FFF7EFFE12E07A684FF476
:10246C007053C4F200039A420BD14FF400404FF06A
:10247C000101FFF7E1FE4FF400404FF00001FFF7C0
:10248C00DBFE07F10807BD4680BD00BF80B485B0F8
:10249C0000AF786039604FF00003FB817B681B88CC
:1024AC00FB81FB8903F44153FB813B681A883B6831
:1024BC005B8813439AB23B689B8813439AB23B6880
:1024CC00DB8813439AB23B681B8913439AB23B686F
:1024DC005B8913439AB23B689B8913439AB23B685E
:1024EC00DB8913439AB2FB891343FB817B68FA891E
:1024FC001A807B689B8B9BB223F400639AB27B6837
:10250C009A833B681A8A7B681A8207F11407BD46C6
:10251C0080BC704780B58CB000AF786039604FF0EC
:10252C0000037B844FF00203FB854FF00003BB8557
:10253C004FF001037B854FF000037B624FF00003EB
:10254C00FB617B689B8B9BB223F47A6323F01F03A4
:10255C009AB27B689A837B684FF002021A847B687C
:10256C009B8B7B843B689B68022B06D14FF000034E
:10257C00BB854FF00203FB8567E03B689B88002B13
:10258C0003D14FF001037B8502E04FF002037B8502
:10259C007A684FF46053C4F200039A4203D14FF4AB
:1025AC0000337B6202E04FF480237B6207F1080367
:1025BC001846FFF7A7FCBB68FB613B68DB88B3F5EB
:1025CC00007F13D1FB694FEA132213464FEA8303B2
:1025DC009B184FEA43031A463B689B68B2FBF3F324
:1025EC009BB203F105039BB27B6215E07B8D4FEA36
:1025FC004313FA69B2FBF3F213464FEA83039B18B9
:10260C004FEA43031A463B689B68B2FBF3F39BB259
:10261C0003F105039BB27B627A6A4CF6CD43CCF690
:10262C00CC43A3FB02134FEAD3037B627B6A9BB2BE
:10263C0003F00103BB85BB8D7A6AD31A4FEA5303AF
:10264C00FB85BB8D4FEA0323BB85FB8D012B02D988
:10265C00FB8DFF2B05D94FF00203FB854FF00003D8
:10266C00BB853B68DA88BB8D13439AB2FB8D134351
:10267C009AB27B681A843B681A883B6859883B6815
:10268C0098883B689B8903439BB20B439BB21343D3
:10269C009AB27B8C13439BB243F400637B847B68BC
:1026AC007A8C9A8307F13007BD4680BD80B483B025
:1026BC0000AF78607B684FF000021A807B684FF0A7
:1026CC0000025A807B684FF000029A807B684FF0C2
:1026DC000002DA807B684FF000021A817B684FF0B1
:1026EC0000025A817B684FF000029A817B684FF0A0
:1026FC000002DA817B684FF007021A8207F10C079F
:10270C00BD4680BC704700BF80B483B000AF78601A
:10271C007B684FF000021A807B684FF000025A80F1
:10272C007B684FF000029A807B684FF00002DA80E1
:10273C007B684FF002029A607B684FF000029A812E
:10274C0007F10C07BD4680BC704700BF80B483B056
:10275C0000AF78600B46FB70FB78002B08D07B68D1
:10276C001B889BB243F040039AB27B681A8007E047
:10277C007B681B889BB223F040039AB27B681A805B
:10278C0007F10C07BD4680BC704700BF80B483B016
:10279C0000AF78600B46FB70FB78002B08D07B6891
:1027AC009B8B9BB243F480639AB27B689A8307E05D
:1027BC007B689B8B9BB223F480639AB27B689A8371
:1027CC0007F10C07BD4680BC704700BF80B485B0D4
:1027DC0000AF786013460A46FA70BB704FF00003E6
:1027EC00FB814FF00003BB81FB784FEA1313DBB284
:1027FC00FB81FB894FF0010202FA03F3BB81BB782A
:10280C00002B08D07B689B889AB2BB8913439AB281
:10281C007B689A800AE07B689B889AB2BB896FEAD6
:10282C0003039BB213409AB27B689A8007F114079A
:10283C00BD4680BC704700BF80B483B000AF7860E9
:10284C0013460A467A807B707B78002B08D07B6815
:10285C009B889AB27B8813439AB27B689A800AE071
:10286C007B689B889AB27B886FEA03039BB2134008
:10287C009AB27B689A8007F10C07BD4680BC704702
:10288C0080B483B000AF78600B467B807B687A881D
:10289C009A8107F10C07BD4680BC704780B483B0A9
:1028AC0000AF78607B689B899BB2184607F10C07D8
:1028BC00BD4680BC704700BF80B483B000AF786069
:1028CC000B467B807A884FF6FF639A4208D07B6870
:1028DC001B889BB243F480739AB27B681A8007E022
:1028EC007B681B889BB223F480739AB27B681A8036
:1028FC0007F10C07BD4680BC704700BF80B483B0A5
:10290C0000AF78600B46FB70FB78002B08D07B681F
:10291C009B889BB243F004039AB27B689A8007E0D1
:10292C007B689B889BB223F004039AB27B689A80E5
:10293C0007F10C07BD4680BC704700BF80B483B064
:10294C0000AF78600B467B807B681B889BB223F4BE
:10295C0000639AB27B681A807B681B889AB27B886A
:10296C0013439AB27B681A8007F10C07BD4680BCF2
:10297C00704700BF80B483B000AF78607B681B8861
:10298C009BB243F480539AB27B681A8007F10C0710
:10299C00BD4680BC704700BF80B483B000AF786088
:1029AC000B46FB70FB78002B08D07B681B889BB216
:1029BC0043F400539AB27B681A8007E07B681B884B
:1029CC009BB223F400539AB27B681A8007F10C0770
:1029DC00BD4680BC704700BF80B485B000AF786046
:1029EC000B46FB704FF00003FB81FB78012B03D0EF
:1029FC007B681B8BFB8102E07B689B8AFB81FB89DC
:102A0C00184607F11407BD4680BC704780B483B0EC
:102A1C0000AF78607B681B8A9BB2184607F10C07E5
:102A2C00BD4680BC704700BF80B483B000AF7860F7
:102A3C000B467B807B88B3F5804F08D17B681B8865
:102A4C009BB243F480439AB27B681A8007E07B68A0
:102A5C001B889BB223F480439AB27B681A8007F1DF
:102A6C000C07BD4680BC704780B485B000AF786061
:102A7C000B467B804FF00003FB737B681B899AB27B
:102A8C007B8813409BB2002B03D04FF00103FB73E8
:102A9C0002E04FF00003FB73FB7B184607F11407B1
:102AAC00BD4680BC704700BF80B483B000AF786077
:102ABC000B467B807B886FEA03039AB27B681A8192
:102ACC0007F10C07BD4680BC704700BF80B485B0D1
:102ADC0000AF78600B46FB704FF00003FB734FF0B8
:102AEC000003BB814FF000037B814FF000033B815F
:102AFC00FB7803F00F034FF0010202FA03F3BB81E2
:102B0C00FB784FEA1313DBB27B817B894FF0010218
:102B1C0002FA03F37B817B689B889AB27B89134012
:102B2C003B817B681B899AB2BB8913409BB2002BFB
:102B3C0006D03B89002B03D04FF00103FB7302E05E
:102B4C004FF00003FB73FB7B184607F11407BD46DF
:102B5C0080BC704780B485B000AF78600B46FB70CA
:102B6C004FF00003FB81FB7803F00F034FF00102E1
:102B7C0002FA03F3FB81FB896FEA03039AB27B68C9
:102B8C001A8107F11407BD4680BC704780B582B02E
:102B9C0000AF78607A684FF43053C4F201039A4264
:102BAC000CD14FF400604FF00101FFF719FB4FF40B
:102BBC0000604FF00001FFF713FB3BE17B68B3F1C2
:102BCC00804F0CD14FF001004FF00101FFF734FBA7
:102BDC004FF001004FF00001FFF72EFB2AE17A685D
:102BEC004FF48063C4F200039A420CD14FF0020000
:102BFC004FF00101FFF720FB4FF002004FF00001F6
:102C0C00FFF71AFB16E17A684FF40063C4F2000375
:102C1C009A420CD14FF004004FF00101FFF70CFB6E
:102C2C004FF004004FF00001FFF706FB02E17A6859
:102C3C004FF44063C4F200039A420CD14FF00800E9
:102C4C004FF00101FFF7F8FA4FF008004FF00001C8
:102C5C00FFF7F2FAEEE07A684FF48053C4F2000307
:102C6C009A420CD14FF010004FF00101FFF7E4FA3B
:102C7C004FF010004FF00001FFF7DEFADAE07A684F
:102C8C004FF4A053C4F200039A420CD14FF0200031
:102C9C004FF00101FFF7D0FA4FF020004FF0000188
:102CAC00FFF7CAFAC6E07A684FF45053C4F2010336
:102CBC009A420CD14FF400504FF00101FFF790FAFB
:102CCC004FF400504FF00001FFF78AFAB2E07A6837
:102CDC004FF49843C4F201039A420CD14FF40020F4
:102CEC004FF00101FFF77CFA4FF400204FF0000188
:102CFC00FFF776FA9EE07A684FF4A043C4F2010322
:102D0C009A420CD14FF480104FF00101FFF768FA92
:102D1C004FF480104FF00001FFF762FA8AE07A68F6
:102D2C004FF4A843C4F201039A420CD14FF40010A3
:102D3C004FF00101FFF754FA4FF400104FF000016F
:102D4C00FFF74EFA76E07A684FF4C053C4F20003F2
:102D5C009A420CD14FF040004FF00101FFF76CFA92
:102D6C004FF040004FF00001FFF766FA62E07A681E
:102D7C004FF4E053C4F200039A420CD14FF08000A0
:102D8C004FF00101FFF758FA4FF080004FF00001AF
:102D9C00FFF752FA4EE07A684FF40053C4F2000386
:102DAC009A420CD14FF480704FF00101FFF744FAB6
:102DBC004FF480704FF00001FFF73EFA3AE07A686A
:102DCC004FF48043C4F201039A420CD14FF480308B
:102DDC004FF00101FFF704FA4FF480304FF000017F
:102DEC00FFF7FEF926E07A684FF48843C4F201033A
:102DFC009A420CD14FF400304FF00101FFF7F0F97B
:102E0C004FF400304FF00001FFF7EAF912E07A6856
:102E1C004FF49043C4F201039A420BD14FF480203B
:102E2C004FF00101FFF7DCF94FF480204FF0000167
:102E3C00FFF7D6F907F10807BD4680BD80B485B011
:102E4C0000AF786039604FF00003FB817B681B8812
:102E5C00FB817A684FF43053C4F201039A421FD0BD
:102E6C007A684FF45053C4F201039A4218D07B682D
:102E7C00B3F1804F14D07A684FF48063C4F200032E
:102E8C009A420DD07A684FF40063C4F200039A4260
:102E9C0006D07A684FF44063C4F200039A4208D11A
:102EAC00FB8923F07003FB813B685A88FB89134331
:102EBC00FB817A684FF48053C4F200039A420FD01E
:102ECC007A684FF4A053C4F200039A4208D0FB89ED
:102EDC0023F44073FB813B68DA88FB891343FB8145
:102EEC007B68FA891A803B689A887B689A853B686C
:102EFC001A887B681A857A684FF43053C4F2010340
:102F0C009A421BD07A684FF45053C4F201039A4290
:102F1C0014D07A684FF48043C4F201039A420DD066
:102F2C007A684FF48843C4F201039A4206D07A6857
:102F3C004FF49043C4F201039A4204D13B681B7ACC
:102F4C001A467B681A867B684FF001029A8207F159
:102F5C001407BD4680BC704780B485B000AF786064
:102F6C0039604FF000037B814FF00003FB814FF081
:102F7C000003BB817B681B8C9BB223F001039AB2CC
:102F8C007B681A847B681B8CFB817B689B88BB816C
:102F9C007B681B8B7B817B8923F070037B817B8916
:102FAC0023F003037B813B681A887B8913437B8165
:102FBC00FB8923F00203FB813B681A89FB891343CD
:102FCC00FB813B685A88FB891343FB817A684FF479
:102FDC003053C4F201039A421BD07A684FF4505319
:102FEC00C4F201039A4214D07A684FF48043C4F2BD
:102FFC0001039A420DD07A684FF48843C4F201035E
:10300C009A4206D07A684FF49043C4F201039A4274
:10301C0023D1FB8923F00803FB813B685A89FB8988
:10302C001343FB81FB8923F00403FB813B689A88E3
:10303C00FB891343FB81BB8923F48073BB81BB8960
:10304C0023F40073BB813B689A89BB891343BB8112
:10305C003B68DA89BB891343BB817B68BA899A8048
:10306C007B687A891A833B68DA887B689A867B68E6
:10307C00FA891A8407F11407BD4680BC704700BF5B
:10308C0080B485B000AF786039604FF000037B816D
:10309C004FF00003FB814FF00003BB817B681B8C5E
:1030AC009BB223F010039AB27B681A847B681B8C4A
:1030BC00FB817B689B88BB817B681B8B7B817B89BD
:1030CC0023F4E0437B817B8923F440737B813B6851
:1030DC001B884FEA03239AB27B8913437B81FB89BC
:1030EC0023F02003FB813B681B894FEA03139AB240
:1030FC00FB891343FB813B685B884FEA03139AB24D
:10310C00FB891343FB817A684FF43053C4F20103FB
:10311C009A4206D07A684FF45053C4F201039A4293
:10312C002FD1FB8923F08003FB813B685B894FEA3D
:10313C0003139AB2FB891343FB81FB8923F04003F1
:10314C00FB813B689B884FEA03139AB2FB891343BC
:10315C00FB81BB8923F48063BB81BB8923F40063AF
:10316C00BB813B689B894FEA83039AB2BB891343AB
:10317C00BB813B68DB894FEA83039AB2BB8913435B
:10318C00BB817B68BA899A807B687A891A833B6891
:10319C00DA887B681A877B68FA891A8407F1140726
:1031AC00BD4680BC704700BF80B485B000AF78606E
:1031BC0039604FF000037B814FF00003FB814FF02F
:1031CC000003BB817B681B8C9BB223F480739AB287
:1031DC007B681A847B681B8CFB817B689B88BB811A
:1031EC007B689B8B7B817B8923F070037B817B8944
:1031FC0023F003037B813B681A887B8913437B8113
:10320C00FB8923F40073FB813B681B894FEA032382
:10321C009AB2FB891343FB813B685B884FEA03231B
:10322C009AB2FB891343FB817A684FF43053C4F292
:10323C0001039A4206D07A684FF45053C4F201034A
:10324C009A422FD1FB8923F40063FB813B685B8995
:10325C004FEA03239AB2FB891343FB81FB8923F4C6
:10326C008063FB813B689B884FEA03239AB2FB89FE
:10327C001343FB81BB8923F48053BB81BB8923F4AB
:10328C000053BB813B689B894FEA03139AB2BB89FD
:10329C001343BB813B68DB894FEA03139AB2BB89AA
:1032AC001343BB817B68BA899A807B687A899A833D
:1032BC003B68DA887B689A877B68FA891A8407F1FD
:1032CC001407BD4680BC704780B485B000AF7860F1
:1032DC0039604FF00003BB814FF000037B814FF04E
:1032EC000003FB817B681B8C9BB223F480539AB246
:1032FC007B681A847B681B8C7B817B689B88FB8139
:10330C007B689B8BBB81BB8923F4E043BB81BB896E
:10331C0023F44073BB813B681B884FEA03239AB2AA
:10332C00BB891343BB817B8923F400537B813B68AE
:10333C001B894FEA03339AB27B8913437B813B6829
:10334C005B884FEA03339AB27B8913437B817A689B
:10335C004FF43053C4F201039A4206D07A684FF40A
:10336C005053C4F201039A420BD1FB8923F48043DE
:10337C00FB813B689B894FEA83139AB2FB89134309
:10338C00FB817B68FA899A807B68BA899A833B684F
:10339C00DA887B68A3F840207B687A891A8407F165
:1033AC001407BD4680BC704780B582B000AF786012
:1033BC0039603B681B88002B0FD13B6859883B68F0
:1033CC009A883B681B89786801F0D4F93B68DB88E4
:1033DC007868194601F076F836E03B681B88042BB8
:1033EC000FD13B6859883B689A883B681B89786881
:1033FC0001F032FA3B68DB887868194601F07EF8F8
:10340C0022E03B681B88082B0FD13B6859883B682E
:10341C009A883B681B89786801F0A0FA3B68DB88C6
:10342C007868194601F088F80EE03B6859883B68CB
:10343C009A883B681B89786801F00AFB3B68DB883B
:10344C007868194601F094F807F10807BD4680BD6D
:10345C0080B584B000AF786039604FF00003FB8119
:10346C004FF00103BB813B685B88002B03D14FF00D
:10347C000203FB8102E04FF00003FB813B689B8859
:10348C00012B03D14FF00203BB8102E04FF001038B
:10349C00BB813B681B88002B1CD13B6859883B685F
:1034AC009A883B681B89786801F064F93B68DB8873
:1034BC007868194601F006F83B681B89F989BA89C6
:1034CC00786801F0C9F93B68DB887868194601F027
:1034DC0015F81BE03B6859883B689A883B681B8948
:1034EC00786801F0B9F93B68DB887868194601F017
:1034FC0005F83B681B89F989BA89786801F03AF9B3
:10350C003B68DB887868194600F0DCFF07F1100790
:10351C00BD4680BD80B483B000AF786039603B6835
:10352C001A883B685B8813439AB23B689B881343A9
:10353C009AB23B68DB8813439AB23B681B891343EE
:10354C009AB23B685B8913439AB23B689B891343DD
:10355C009AB27B68A3F8442007F10C07BD4680BCE7
:10356C00704700BF80B483B000AF78607B684FF6C3
:10357C00FF729A807B684FF000021A807B684FF0D4
:10358C000002DA807B684FF000025A807B684FF0B3
:10359C0000021A7207F10C07BD4680BC704700BFD1
:1035AC0080B483B000AF78607B684FF000021A8063
:1035BC007B684FF000025A807B684FF000029A80C3
:1035CC007B684FF00002DA807B684FF000021A81B2
:1035DC007B684FF000025A817B684FF000029A81A1
:1035EC007B684FF00002DA8107F10C07BD4680BC06
:1035FC00704700BF80B483B000AF78607B684FF039
:10360C0000021A807B684FF000025A807B684FF0F2
:10361C0001029A807B684FF00002DA807B684FF0E1
:10362C0000021A8107F10C07BD4680BC704700BF31
:10363C0080B483B000AF78607B684FF000021A80D2
:10364C007B684FF000025A807B684FF000029A8032
:10365C007B684FF00002DA807B684FF000021A8121
:10366C007B684FF000025A817B684FF000029A8110
:10367C0007F10C07BD4680BC704700BF80B483B017
:10368C0000AF78600B46FB70FB78002B08D07B6892
:10369C001B889BB243F001039AB27B681A8007E047
:1036AC007B681B889BB223F001039AB27B681A805B
:1036BC0007F10C07BD4680BC704700BF80B483B0D7
:1036CC0000AF78600B46FB70FB78002B0CD07B684E
:1036DC00B3F844309BB26FEA43436FEA53439AB258
:1036EC007B68A3F844200BE07B68B3F844309BB2B2
:1036FC004FEA43434FEA53439AB27B68A3F8442002
:10370C0007F10C07BD4680BC704700BF80B483B086
:10371C0000AF786013460A467A807B707B78002B6A
:10372C0008D07B689B899AB27B8813439AB27B68DA
:10373C009A810AE07B689B899AB27B886FEA0303C3
:10374C009BB213409AB27B689A8107F10C07BD4675
:10375C0080BC704780B483B000AF78600B467B8030
:10376C007B687A889A8207F10C07BD4680BC70474B
:10377C0080B483B000AF786013460A467A803B80F1
:10378C007A883B8813439AB27B68A3F8482007F1E8
:10379C000C07BD4680BC704780B483B000AF786026
:1037AC0013460A467A807B707B78002B08D07B68A6
:1037BC009B899AB27B8813439AB27B689A810AE000
:1037CC007B689B899AB27B886FEA03039BB2134098
:1037DC009AB27B689A8107F10C07BD4680BC704792
:1037EC0080B483B000AF78607B681B899BB223F0F8
:1037FC0007039AB27B681A8107F10C07BD4680BC9F
:10380C00704700BF80B582B000AF78600B467B80FC
:10381C007B887868194600F0D3F87B681B899BB2CB
:10382C0043F007039AB27B681A8107F10807BD467B
:10383C0080BD00BF80B584B000AFF86079813A815B
:10384C00FB807B89602B08D13A89FB88F86811468C
:10385C004FF0010201F000F807E03A89FB88F868A4
:10386C0011464FF0010200F085FF7B89F86819467C
:10387C0000F0A6F8FB681B899BB243F007039AB2D1
:10388C00FB681A8107F11007BD4680BD80B586B074
:10389C0000AFF86079813A81FB804FF00003FB8226
:1038AC0079893A89FB88F86800F034F8FB681B8941
:1038BC00FB82FB8A23F00703FB82FB8A43F007039E
:1038CC00FB82FB8A23F07003FB82FB8A43F07003BC
:1038DC00FB82FB68FA8A1A8107F11807BD4680BD86
:1038EC0080B584B000AFF86079813A81FB8079892A
:1038FC003A89FB88F86800F00DF8FB681B899BB2CD
:10390C0043F480439AB2FB681A8107F11007BD4655
:10391C0080BD00BF80B487B000AFF86079813A8178
:10392C00FB804FF00003FB82FB681B89FB82FB8A48
:10393C00DBB2FB82FB884FEA03239AB23B89134329
:10394C009AB27B8913439AB2FB8A1343FB82FB68BE
:10395C00FA8A1A8107F11C07BD4680BC704700BF6C
:10396C0080B483B000AF786013460A467A803B80FF
:10397C007B687A881A857B683A889A8207F10C07EB
:10398C00BD4680BC704700BF80B485B000AF786086
:10399C000B467B804FF00003FB817B681B88FB810F
:1039AC00FB8923F07003FB81FA897B881343FB812D
:1039BC007B68FA891A8007F11407BD4680BC7047F2
:1039CC0080B485B000AF78600B467B804FF000036D
:1039DC00FB817B681B89FB81FB8923F07003FB81D6
:1039EC00FA897B881343FB817B68FA891A8107F17A
:1039FC001407BD4680BC704780B487B000AFF86038
:103A0C0079813A81FB804FF00003FB824FF0000379
:103A1C00BB824FF000037B82FB681B89FB82FB6837
:103A2C001B8BBB82FB681B8C7B82FB8A23F00703FE
:103A3C00FB82FA8A7B891343FB82BB8A23F4407393
:103A4C0023F00303BB82BB8A43F4807343F001036E
:103A5C00BB827B8A23F022037B82FB884FEA031311
:103A6C009AB23B8913439AB27B8A13437B82FB68DD
:103A7C00FA8A1A81FB68BA8A1A83FB687A8A1A84D2
:103A8C0007F11C07BD4680BC704700BF80B485B0F1
:103A9C0000AF78600B467B804FF00003FB817B68A6
:103AAC001B8BFB81FB8923F07003FB81FA897B88DC
:103ABC001343FB817B68FA891A8307F11407BD460F
:103ACC0080BC704780B485B000AF78600B467B80BB
:103ADC004FF00003FB817B681B8BFB81FB8923F47C
:103AEC00E043FB817B884FEA03239AB2FB891343A3
:103AFC00FB817B68FA891A8307F11407BD4680BCE9
:103B0C00704700BF80B485B000AF78600B467B80F7
:103B1C004FF00003FB817B689B8BFB81FB8923F0BF
:103B2C007003FB81FA897B881343FB817B68FA89DC
:103B3C009A8307F11407BD4680BC704780B485B0EA
:103B4C0000AF78600B467B804FF00003FB817B68F5
:103B5C009B8BFB81FB8923F4E043FB817B884FEA41
:103B6C0003239AB2FB891343FB817B68FA899A83FE
:103B7C0007F11407BD4680BC704700BF80B483B00A
:103B8C0000AF78600B46FB70FB78002B08D07B688D
:103B9C001B889BB243F080039AB27B681A8007E0C3
:103BAC007B681B889BB223F080039AB27B681A80D7
:103BBC0007F10C07BD4680BC704700BF80B483B0D2
:103BCC0000AF78600B46FB70FB78002B08D07B684D
:103BDC009B889BB243F004039AB27B689A8007E0FF
:103BEC007B689B889BB223F004039AB27B689A8013
:103BFC0007F10C07BD4680BC704700BF80B483B092
:103C0C0000AF78600B46FB70FB78002B08D07B680C
:103C1C009B889BB243F008039AB27B689A8007E0BA
:103C2C007B689B889BB223F008039AB27B689A80CE
:103C3C0007F10C07BD4680BC704700BF80B483B051
:103C4C0000AF78600B46FB70FB78002B08D07B68CC
:103C5C009B889BB243F001039AB27B689A8007E081
:103C6C007B689B889BB223F001039AB27B689A8095
:103C7C0007F10C07BD4680BC704700BF80B485B00F
:103C8C0000AF78600B467B804FF00003FB817B68B4
:103C9C001B8BFB81FB8923F00803FB81FA897B8852
:103CAC001343FB817B68FA891A8307F11407BD461D
:103CBC0080BC704780B485B000AF78600B467B80C9
:103CCC004FF00003FB817B681B8BFB81FB8923F48A
:103CDC000063FB817B884FEA03239AB2FB89134371
:103CEC00FB817B68FA891A8307F11407BD4680BCF7
:103CFC00704700BF80B485B000AF78600B467B8006
:103D0C004FF00003FB817B689B8BFB81FB8923F0CD
:103D1C000803FB81FA897B881343FB817B68FA8952
:103D2C009A8307F11407BD4680BC704780B485B0F8
:103D3C0000AF78600B467B804FF00003FB817B6803
:103D4C009B8BFB81FB8923F40063FB817B884FEA0F
:103D5C0003239AB2FB891343FB817B68FA899A830C
:103D6C0007F11407BD4680BC704700BF80B485B016
:103D7C0000AF78600B467B804FF00003FB817B68C3
:103D8C001B8BFB81FB8923F00403FB81FA897B8865
:103D9C001343FB817B68FA891A8307F11407BD462C
:103DAC0080BC704780B485B000AF78600B467B80D8
:103DBC004FF00003FB817B681B8BFB81FB8923F499
:103DCC008063FB817B884FEA03239AB2FB89134300
:103DDC00FB817B68FA891A8307F11407BD4680BC06
:103DEC00704700BF80B485B000AF78600B467B8015
:103DFC004FF00003FB817B689B8BFB81FB8923F0DD
:103E0C000403FB81FA897B881343FB817B68FA8965
:103E1C009A8307F11407BD4680BC704780B485B007
:103E2C0000AF78600B467B804FF00003FB817B6812
:103E3C009B8BFB81FB8923F48063FB817B884FEA9E
:103E4C0003239AB2FB891343FB817B68FA899A831B
:103E5C0007F11407BD4680BC704700BF80B485B025
:103E6C0000AF78600B467B804FF00003FB817B68D2
:103E7C001B8BFB81FB8923F08003FB81FA897B88F8
:103E8C001343FB817B68FA891A8307F11407BD463B
:103E9C0080BC704780B485B000AF78600B467B80E7
:103EAC004FF00003FB817B681B8BFB81FB894FEA86
:103EBC0043434FEA5343FB817B884FEA03239AB277
:103ECC00FB891343FB817B68FA891A8307F114077A
:103EDC00BD4680BC704700BF80B485B000AF786031
:103EEC000B467B804FF00003FB817B689B8BFB8137
:103EFC00FB8923F08003FB81FA897B881343FB81C8
:103F0C007B68FA899A8307F11407BD4680BC704719
:103F1C0080B485B000AF78600B467B804FF0000317
:103F2C00FB817B689B8BFB81FB894FEA43434FEA08
:103F3C005343FB817B884FEA03239AB2FB891343DB
:103F4C00FB817B68FA899A8307F11407BD4680BC14
:103F5C00704700BF80B485B000AF78600B467B80A3
:103F6C004FF00003FB817B681B8CFB81FB8923F0EA
:103F7C000203FB81FA897B881343FB817B68FA89F6
:103F8C001A8407F11407BD4680BC704780B485B015
:103F9C0000AF78600B467B804FF00003FB817B68A1
:103FAC001B8CFB81FB8923F00803FB81FA897B883E
:103FBC001343FB817B68FA891A8407F11407BD4609
:103FCC0080BC704780B485B000AF78600B467B80B6
:103FDC004FF00003FB817B681B8CFB81FB8923F07A
:103FEC002003FB817B884FEA03139AB2FB891343AE
:103FFC00FB817B68FA891A8407F11407BD4680BCE3
:10400C00704700BF80B485B000AF78600B467B80F2
:10401C004FF00003FB817B681B8CFB81FB8923F039
:10402C008003FB817B884FEA03139AB2FB8913430D
:10403C00FB817B68FA891A8407F11407BD4680BCA2
:10404C00704700BF80B485B000AF78600B467B80B2
:10405C004FF00003FB817B681B8CFB81FB8923F4F5
:10406C000073FB817B884FEA03239AB2FB891343CD
:10407C00FB817B68FA891A8407F11407BD4680BC62
:10408C00704700BF80B485B000AF78600B467B8072
:10409C004FF00003FB817B681B8CFB81FB8923F4B5
:1040AC000063FB817B884FEA03239AB2FB8913439D
:1040BC00FB817B68FA891A8407F11407BD4680BC22
:1040CC00704700BF80B485B000AF78600B467B8032
:1040DC004FF00003FB817B681B8CFB81FB8923F475
:1040EC000053FB817B884FEA03339AB2FB8913435D
:1040FC00FB817B68FA891A8407F11407BD4680BCE2
:10410C00704700BF80B485B000AF786013460A4694
:10411C007A803B804FF00003FB817B884FF00102DB
:10412C0002FA03F3FB817B681B8C9AB2FB896FEA62
:10413C0003039BB213409AB27B681A847B681B8C76
:10414C009AB239887B8801FA03F39BB213439AB273
:10415C007B681A8407F11407BD4680BC704700BF0A
:10416C0080B485B000AF786013460A467A803B80F5
:10417C004FF00003FB817B884FF0040202FA03F33B
:10418C00FB817B681B8C9AB2FB896FEA03039BB2A1
:10419C0013409AB27B681A847B681B8C9AB239885C
:1041AC007B8801FA03F39BB213439AB27B681A849F
:1041BC0007F11407BD4680BC704700BF80B485B0C2
:1041CC0000AF786013460A467A803B804FF00003BC
:1041DC00FB604FF000037B817B68FB60FB6803F1A5
:1041EC001803FB607B884FF0010202FA03F37B811A
:1041FC007B681B8C9AB27B896FEA03039BB21340DA
:10420C009AB27B681A847B88002B02D07B88082B9F
:10421C0013D17B884FEA53039BB2FA68D318FB6027
:10422C00FB68FA68126822F070021A60FB68FA6880
:10423C0011683A880A431A6018E07B88A3F10403DA
:10424C009BB24FEA53039BB2FA68D318FB60FB682E
:10425C00FA68126822F4E0421A60FB68FA68116886
:10426C003A884FEA022292B20A431A6007F1140705
:10427C00BD4680BC704700BF80B483B000AF78608F
:10428C000B46FB70FB78002B08D07B681B889BB21D
:10429C0043F002039AB27B681A8007E07B681B88A4
:1042AC009BB223F002039AB27B681A8007F10C07C9
:1042BC00BD4680BC704700BF80B483B000AF78604F
:1042CC000B467B807B88002B08D07B681B889BB2BD
:1042DC0043F004039AB27B681A8007E07B681B8862
:1042EC009BB223F004039AB27B681A8007F10C0787
:1042FC00BD4680BC704700BF80B483B000AF78600F
:10430C000B46FB70FB78002B08D07B689B889BB21C
:10431C0043F080039AB27B689A8007E07B689B88A5
:10432C009BB223F080039AB27B689A8007F10C074A
:10433C00BD4680BC704700BF80B483B000AF7860CE
:10434C000B467B807B681B889BB223F008039AB2D8
:10435C007B681A807B681B889AB27B8813439AB25D
:10436C007B681A8007F10C07BD4680BC704700BF04
:10437C0080B483B000AF78600B467B807B689B88F1
:10438C009BB223F070039AB27B689A807B689B88FF
:10439C009AB27B8813439AB27B689A8007F10C0718
:1043AC00BD4680BC704700BF80B483B000AF78605E
:1043BC000B467B807B681B899BB223F007039AB268
:1043CC007B681A817B681B899AB27B8813439AB2EB
:1043DC007B681A8107F10C07BD4680BC704700BF93
:1043EC0080B483B000AF78600B467B807B681B8900
:1043FC009BB223F080039AB27B681A817B681B897D
:10440C009AB27B8813439AB27B681A8107F10C0726
:10441C00BD4680BC704700BF80B483B000AF7860ED
:10442C000B467B807B687A889A8407F10C07BD4623
:10443C0080BC704780B483B000AF78600B467B8043
:10444C007B687A889A8507F10C07BD4680BC70475B
:10445C0080B483B000AF78600B467B807B687A8831
:10446C009A8607F10C07BD4680BC704780B483B0B8
:10447C0000AF78600B467B807B687A881A8707F1DF
:10448C000C07BD4680BC704780B483B000AF786029
:10449C000B467B807B687A889A8707F10C07BD46B0
:1044AC0080BC704780B483B000AF78600B467B80D3
:1044BC007B687A88A3F8402007F10C07BD4680BCC6
:1044CC00704700BF80B483B000AF78600B467B8030
:1044DC007B681B8B9BB223F00C039AB27B681A830C
:1044EC007B681B8B9AB27B8813439AB27B681A83C6
:1044FC0007F10C07BD4680BC704700BF80B483B089
:10450C0000AF78600B467B807B681B8B9BB223F4DF
:10451C0040639AB27B681A837B681B8B9AB27B8848
:10452C004FEA03239BB213439AB27B681A8307F1B9
:10453C000C07BD4680BC704780B483B000AF786078
:10454C000B467B807B689B8B9BB223F00C039AB24F
:10455C007B689A837B689B8B9AB27B8813439AB255
:10456C007B689A8307F10C07BD4680BC704700BF7F
:10457C0080B483B000AF78600B467B807B689B8BEC
:10458C009BB223F440639AB27B689A837B689B8BC3
:10459C009AB27B884FEA03239BB213439AB27B688F
:1045AC009A8307F10C07BD4680BC704780B483B07A
:1045BC0000AF78600B467B807B681B889BB223F432
:1045CC0040739AB27B681A807B681B889AB27B888E
:1045DC0013439AB27B681A8007F10C07BD4680BC66
:1045EC00704700BF80B483B000AF78607B689B8E4F
:1045FC009BB2184607F10C07BD4680BC704700BF44
:10460C0080B483B000AF78607B681B8F9BB2184678
:10461C0007F10C07BD4680BC704700BF80B483B067
:10462C0000AF78607B689B8F9BB2184607F10C0734
:10463C00BD4680BC704700BF80B483B000AF7860CB
:10464C007B68B3F840309BB2184607F10C07BD46A7
:10465C0080BC704780B483B000AF78607B689B8C63
:10466C009BB2184607F10C07BD4680BC704700BFD3
:10467C0080B483B000AF78607B681B8D9BB218460A
:10468C0007F10C07BD4680BC704700BF80B485B0F5
:10469C0000AF78600B467B804FF00003FB737B68A8
:1046AC001B8A9AB27B8813409BB2002B03D04FF02D
:1046BC000103FB7302E04FF00003FB73FB7B184616
:1046CC0007F11407BD4680BC704700BF80B483B0AF
:1046DC0000AF78600B467B807B886FEA03039AB24D
:1046EC007B681A8207F10C07BD4680BC704700BF7F
:1046FC0080B485B000AF78600B467B804FF0000330
:10470C00FB734FF00003BB814FF000037B817B6890
:10471C001B8A9AB27B881340BB817B689B899AB2B7
:10472C007B8813407B81BB89002B06D07B89002BB7
:10473C0003D04FF00103FB7302E04FF00003FB7357
:10474C00FB7B184607F11407BD4680BC704700BFC1
:10475C0080B483B000AF78600B467B807B886FEAB7
:10476C0003039AB27B681A8207F10C07BD4680BC22
:10477C00704700BF80B487B000AFF86079813A8190
:10478C00FB804FF00003BB824FF00003FB82FB6801
:10479C001B8C9BB223F001039AB2FB681A84FB6852
:1047AC001B8BBB82FB681B8CFB82BB8A23F0F30345
:1047BC00BB82FB884FEA03139AB23B8913439AB22C
:1047CC00BB8A1343BB82FA684FF43053C4F2010323
:1047DC009A421FD0FA684FF45053C4F201039A4224
:1047EC0018D0FB68B3F1804F14D0FA684FF4806393
:1047FC00C4F200039A420DD0FA684FF40063C4F27D
:10480C0000039A4206D0FA684FF44063C4F20003E6
:10481C009A420BD1FB8A23F00203FB827A89FB8A32
:10482C0013439BB243F00103FB820AE0FB8A23F0A3
:10483C000A03FB827A89FB8A13439BB243F0010380
:10484C00FB82FB68BA8A1A83FB68FA8A1A8407F11E
:10485C001C07BD4680BC704780B487B000AFF860C1
:10486C0079813A81FB804FF00003BB824FF000034B
:10487C00FB824FF000037B82FB681B8C9BB223F006
:10488C0010039AB2FB681A84FB681B8BBB82FB6813
:10489C001B8CFB827B894FEA03137B82BB8A23F43C
:1048AC0040734FEA03534FEA1353BB82FB884FEA22
:1048BC0003339AB2BB8A1343BB823B894FEA03236F
:1048CC009AB2BB8A1343BB82FA684FF43053C4F2DA
:1048DC0001039A421FD0FA684FF45053C4F20103FB
:1048EC009A4218D0FB68B3F1804F14D0FA684FF499
:1048FC008063C4F200039A420DD0FA684FF400634F
:10490C00C4F200039A4206D0FA684FF44063C4F232
:10491C0000039A420BD1FB8A23F02003FB827A8A94
:10492C00FB8A13439BB243F01003FB820AE0FB8A21
:10493C0023F0A003FB827A89FB8A13439BB243F0DA
:10494C001003FB82FB68BA8A1A83FB68FA8A1A8402
:10495C0007F11C07BD4680BC704700BF80B487B010
:10496C0000AFF86079813A81FB804FF00003BB8285
:10497C004FF00003FB824FF000037B82FB681B8C23
:10498C009BB223F480739AB2FB681A84FB689B8BEE
:10499C00BB82FB681B8CFB827B894FEA03237B82E7
:1049AC00BB8A23F0F303BB82FB884FEA03139AB252
:1049BC003B8913439AB2BB8A1343BB82FA684FF408
:1049CC003053C4F201039A421FD0FA684FF450538B
:1049DC00C4F201039A4218D0FB68B3F1804F14D093
:1049EC00FA684FF48063C4F200039A420DD0FA685F
:1049FC004FF40063C4F200039A4206D0FA684FF4F5
:104A0C004063C4F200039A420BD1FB8A23F4007377
:104A1C00FB827A8AFB8A13439BB243F48073FB823A
:104A2C000AE0FB8A23F42063FB827A89FB8A134316
:104A3C009BB243F48073FB82FB68BA8A9A83FB684F
:104A4C00FA8A1A8407F11C07BD4680BC704700BF68
:104A5C0080B487B000AFF86079813A81FB804FF069
:104A6C000003BB824FF00003FB824FF000037B82FC
:104A7C00FB681B8C9BB223F480539AB2FB681A849C
:104A8C00FB689B8BBB82FB681B8CFB827B894FEA90
:104A9C0003337B82BB8A23F440734FEA03534FEA00
:104AAC001353BB823B894FEA03239AB2BB8A13434D
:104ABC00BB82FB884FEA03339AB2BB8A1343BB8297
:104ACC00FA684FF43053C4F201039A421FD0FA68CB
:104ADC004FF45053C4F201039A4218D0FB68B3F15F
:104AEC00804F14D0FA684FF48063C4F200039A42EA
:104AFC000DD0FA684FF40063C4F200039A4206D05A
:104B0C00FA684FF44063C4F200039A420BD1FB8A5B
:104B1C0023F40053FB827A8AFB8A13439BB243F43F
:104B2C008053FB820EE0FB8A23F400734FEA43436D
:104B3C004FEA5343FB827A89FB8A13439BB243F4BB
:104B4C008053FB82FB68BA8A9A83FB68FA8A1A84C0
:104B5C0007F11C07BD4680BC704700BF80B500AF95
:104B6C004FF48053C4F202034FF48052C4F2020299
:104B7C00126842F001021A604FF48052C4F2020231
:104B8C004FF48053C4F202035B6819464FF00003E4
:104B9C00CFF6FF030B4053604FF48053C4F2020373
:104BAC004FF48052C4F20202126822F0847222F492
:104BBC0080321A604FF48053C4F202034FF48052D7
:104BCC00C4F20202126822F480221A604FF480535D
:104BDC00C4F202034FF48052C4F20202526822F46F
:104BEC00FE025A604FF48053C4F202034FF41F02CA
:104BFC009A6000F0ADF84FF46D43CEF200034FF025
:104C0C0000629A6080BD00BF80B485B000AF4FF0E9
:104C1C000003FB604FF00003BB604FF000037B60B0
:104C2C004FF48053C4F202035B6803F00C03FB6087
:104C3C00FB68042B0DD0082B15D0002B5CD140F257
:104C4C001403C2F200034FF49052C0F27A021A60BD
:104C5C005CE040F21403C2F200034FF49052C0F235
:104C6C007A021A6052E04FF48053C4F202035B687C
:104C7C0003F47013BB604FF48053C4F202035B68FF
:104C8C0003F480337B60BB684FEA934303F1020368
:104C9C00BB607B68002B0CD1BA684FF41063C0F278
:104CAC003D0303FB02F240F21403C2F200031A604C
:104CBC002CE04FF48053C4F202035B6803F400331E
:104CCC00002B0CD0BA684FF41063C0F23D0303FB09
:104CDC0002F240F21403C2F200031A6016E0BA6842
:104CEC004FF49053C0F27A0303FB02F240F2140328
:104CFC00C2F200031A6009E040F21403C2F200038E
:104D0C004FF49052C0F27A021A6000BF4FF48053F5
:104D1C00C4F202035B6803F0F0034FEA131240F293
:104D2C001803C2F200039B5CDBB2FB6040F214037D
:104D3C00C2F200031A68FB6822FA03F240F2140371
:104D4C00C2F200031A6007F11407BD4680BC70471D
:104D5C0080B500AF00F002F880BD00BF80B483B016
:104D6C0000AF4FF000037B604FF000033B604FF44B
:104D7C008053C4F202034FF48052C4F20202126850
:104D8C0042F480321A604FF48053C4F202031B6861
:104D9C0003F400333B607B6803F101037B603B68E9
:104DAC00002B03D17B68B3F5A06FECD14FF480538B
:104DBC00C4F202031B6803F40033002B03D04FF042
:104DCC0001033B6002E04FF000033B603B68012BAA
:104DDC0040F092804FF40053C4F202034FF400529F
:104DEC00C4F20202126842F010021A604FF400532F
:104DFC00C4F202034FF40052C4F20202126822F011
:104E0C0003021A604FF40053C4F202034FF4005231
:104E1C00C4F20202126842F001021A604FF480538D
:104E2C00C4F202034FF48052C4F2020252685A6078
:104E3C004FF48053C4F202034FF48052C4F20202C6
:104E4C0052685A604FF48053C4F202034FF48052FC
:104E5C00C4F2020252685A604FF48053C4F2020347
:104E6C004FF48052C4F20202526822F47C125A604F
:104E7C004FF48053C4F202034FF48052C4F2020286
:104E8C00526842F4F8125A604FF48053C4F2020391
:104E9C004FF48052C4F20202126842F080721A601F
:104EAC0000BF4FF48053C4F202031B6803F000737D
:104EBC00002BF6D04FF48053C4F202034FF480520F
:104ECC00C4F20202526822F003025A604FF480537B
:104EDC00C4F202034FF48052C4F20202526842F050
:104EEC0002025A6000BF4FF48053C4F202035B68A5
:104EFC0003F00C03082BF6D107F10C07BD4680BC60
:104F0C00704700BF80F0004002E000BF81F000411C
:104F1C0042001FBF5FEA410392EA030F7FEA226C53
:104F2C007FEA236C6AD04FEA1262D2EB1363C1BFE3
:104F3C00D218414048404140B8BF5B42192B88BF52
:104F4C00704710F0004F40F4000020F07F4018BF75
:104F5C00404211F0004F41F4000121F07F4118BF95
:104F6C00494292EA030F3FD0A2F1010241FA03FC3D
:104F7C0010EB0C00C3F1200301FA03F100F0004325
:104F8C0002D5494260EB4000B0F5000F13D3B0F1ED
:104F9C00807F06D340084FEA310102F10102FE2A5C
:104FAC0051D2B1F1004F40EBC25008BF20F00100CC
:104FBC0040EA03007047490040EB000010F4000F7A
:104FCC00A2F10102EDD1B0FA80FCACF1080CB2EB0D
:104FDC000C0200FA0CF0AABF00EBC250524218436C
:104FEC00BCBFD0401843704792F0000F81F4000111
:104FFC0006BF80F400000132013BB5E74FEA4103E4
:10500C007FEA226C18BF7FEA236C21D092EA030F4F
:10501C0004D092F0000F08BF0846704790EA010FC9
:10502C001CBF0020704712F07F4F04D1400028BFF6
:10503C0040F00040704712F100723CBF00F50000D8
:10504C00704700F0004343F0FE4040F4000070470E
:10505C007FEA226216BF08467FEA236301464202BA
:10506C0006BF5FEA412390EA010F40F480007047CD
:10507C004FF0000304E000BF10F0004348BF404273
:10508C005FEA000C08BF704743F0964301464FF0AF
:10509C0000001CE050EA010208BF70474FF000030B
:1050AC000AE000BF50EA010208BF704711F000434C
:1050BC0002D5404261EB41015FEA010C02BF84461C
:1050CC000146002043F0B64308BFA3F18053A3F57B
:1050DC000003BCFA8CF2083AA3EBC25310DB01FAC2
:1050EC0002FC634400FA02FCC2F12002BCF1004F46
:1050FC0020FA02F243EB020008BF20F001007047D7
:10510C0002F1200201FA02FCC2F1200250EA4C002A
:10511C0021FA02F243EB020008BF20EADC70704770
:10512C004FF0FF0C1CEAD0521EBF1CEAD15392EA7E
:10513C000C0F93EA0C0F6FD01A4480EA010C40025A
:10514C0018BF5FEA41211ED04FF0006343EA5010B4
:10515C0043EA5111A0FB01310CF00040B1F5000FF6
:10516C003EBF490041EAD3715B0040EA010062F1A5
:10517C007F02FD2A1DD8B3F1004F40EBC25008BF8F
:10518C0020F00100704790F0000F0CF0004C08BFAD
:10519C0049024CEA502040EA51207F3AC2BFD2F17A
:1051AC00FF0340EAC250704740F400004FF0000388
:1051BC00013A5DDC12F1190FDCBF00F000407047C2
:1051CC00C2F10002410021FA02F1C2F1200200FA00
:1051DC0002FC5FEA310040F1000053EA4C0308BFC7
:1051EC0020EADC70704792F0000F00F0004C02BF18
:1051FC00400010F4000F013AF9D040EA0C0093F093
:10520C00000F01F0004C02BF490011F4000F013BEC
:10521C00F9D041EA0C018FE70CEAD15392EA0C0F5A
:10522C0018BF93EA0C0F0AD030F0004C18BF31F0C5
:10523C00004CD8D180EA010000F00040704790F09B
:10524C00000F17BF90F0004F084691F0000F91F03F
:10525C00004F14D092EA0C0F01D142020FD193EA05
:10526C000C0F03D14B0218BF084608D180EA01008D
:10527C0000F0004040F0FE4040F40000704740F069
:10528C00FE4040F4400070474FF0FF0C1CEAD05237
:10529C001EBF1CEAD15392EA0C0F93EA0C0F69D093
:1052AC00A2EB030280EA010C49024FEA402037D0FE
:1052BC004FF0805343EA111143EA10130CF00040F5
:1052CC008B4238BF5B0042F17D024FF4000C8B42E5
:1052DC0024BF5B1A40EA0C00B3EB510F24BFA3EBC5
:1052EC00510340EA5C00B3EB910F24BFA3EB910395
:1052FC0040EA9C00B3EBD10F24BFA3EBD10340EAEF
:10530C00DC001B0118BF5FEA1C1CE0D1FD2A3FF634
:10531C0050AF8B4240EBC25008BF20F001007047E9
:10532C000CF0004C4CEA50207F32C2BFD2F1FF038C
:10533C0040EAC250704740F400004FF00003013ABD
:10534C0037E792F0000F00F0004C02BF400010F461
:10535C00000F013AF9D040EA0C0093F0000F01F075
:10536C00004C02BF490011F4000F013BF9D041EA97
:10537C000C0195E70CEAD15392EA0C0F08D14202CA
:10538C007FF47DAF93EA0C0F7FF470AF084676E79D
:10539C0093EA0C0F04D14B023FF44CAF08466EE776
:1053AC0030F0004C18BF31F0004CCAD130F0004244
:1053BC007FF45CAF31F000437FF43CAF5FE700BF9C
:1053CC004FF0FF3C06E000BF4FF0010C02E000BFC5
:1053DC004FF0010C4DF804CD4FEA40024FEA410367
:1053EC007FEA226C18BF7FEA236C11D001B052EA1D
:1053FC00530C18BF90EA010F58BFB2EB030088BFE3
:10540C00C81738BF6FEAE17018BF40F00100704751
:10541C007FEA226C02D15FEA402C05D17FEA236C33
:10542C00E4D15FEA412CE1D05DF8040B704700BF7A
:10543C00844608466146FFE70FB5FFF7C9FF002811
:10544C0048BF10F1000F0FBD4DF808EDFFF7F4FF4A
:10545C000CBF012000205DF808FB00BF4DF808EDE3
:10546C00FFF7EAFF34BF012000205DF808FB00BF06
:10547C004DF808EDFFF7E0FF94BF012000205DF828
:10548C0008FB00BF4DF808EDFFF7D2FF94BF0120D9
:10549C0000205DF808FB00BF4DF808EDFFF7C8FFD2
:1054AC0034BF012000205DF808FB00BF4FEA40022A
:1054BC00B2F1FE4F0FD34FF09E03B3EB12620DD936
:1054CC004FEA002343F0004310F0004F23FA02F0A0
:1054DC0018BF404270474FF00000704712F1610F47
:1054EC0001D1420205D110F0004008BF6FF000401E
:1054FC0070474FF00000704790B587B000AF4FF089
:10550C0000037B614FF000033B614FF00003FB6035
:10551C004FF00003BB604FF000037B603BE07B6807
:10552C004FEA830240F22C03C2F2000333F812302C
:10553C007A69D3187B617B684FEA830303F101021C
:10554C0040F22C03C2F2000333F812303A69D3183C
:10555C003B617B684FEA830303F1020240F22C03A8
:10556C00C2F2000333F81230FA68D318FB607B6880
:10557C0003F101034FEA830303F1FF3240F22C03E2
:10558C00C2F2000333F81230BA68D318BB607B68E0
:10559C0003F101037B607B68632BCCBF00230123E9
:1055AC00DBB2002BBBD17869FFF766FD03461846CA
:1055BC002349FFF7B5FD034618462249FFF764FE61
:1055CC0003461A4640F24C33C2F200031A603869A3
:1055DC00FFF752FD0446F868FFF74EFD03462046E0
:1055EC001946FFF793FC034618461649FFF74CFE85
:1055FC0003461A4640F25033C2F200031A60B868F0
:10560C00FFF73AFD034618460F49FFF789FD03469D
:10561C0018460C49FFF738FE03461A4640F254333D
:10562C00C2F200031A604FF41050C4F201004FF4A0
:10563C000871FBF7D1FB07F11C07BD4690BD00BFFD
:10564C0041C9AE3A0000C8420AB61B3C80B592B0C4
:10565C0000AF4FF004004FF00101FCF769FD4FF073
:10566C0001004FF00101FCF763FD4FF0A003A7F818
:10567C0044304FF0180387F847304FF0030387F896
:10568C00463007F144034FF40060C4F201001946A0
:10569C00FBF7D6FE4FF05803A7F844304FF0100339
:1056AC0087F8473007F144034FF40060C4F201005F
:1056BC001946FBF7C5FE4FF480504FF00101FCF783
:1056CC0037FD4FF01803BB874FF001033B874FF0BA
:1056DC000203FB864FF00003BB864FF440433B862E
:1056EC004FF00003FB874FF482737B864FF40073FB
:1056FC007B8707F130034FF44050C4F20100194688
:10570C00FCF7C4FE4FF44050C4F201004FF001010D
:10571C00FDF7F4F84FF001004FF00101FCF7DCFC51
:10572C004FF08003FB604FF01003BB604FF00003A1
:10573C00BB6240F25833C2F200037B604FF00003AF
:10574C00FB614FF080037B614FF000033B6243F23F
:10575C000C03C4F201033B604FF00003BB614FF03C
:10576C0000033B614FF000037B623B464FF030007F
:10577C00C4F202001946FBF757FC4FF03000C4F29C
:10578C0002004FF002014FF00102FBF7E1FC4FF079
:10579C000D0387F82C304FF0000387F82D304FF0B5
:1057AC00000387F82E304FF0010387F82F3007F1F4
:1057BC002C031846FAF7B8FC4FF44050C4F2010021
:1057CC004FF002014FF00102FDF736F84FF4405054
:1057DC00C4F201004FF00101FCF7B8FF4FF4006078
:1057EC00C4F201004FF01001FBF77EFF4FF4006094
:1057FC00C4F201004FF04001FBF776FF4FF4FA7052
:10580C0001F032FA4FF40060C4F201004FF0400195
:10581C00FBF75CFF4FF0A3004FF0000100F0BCFA67
:10582C004FF0A0004FF0000100F0B6FA4FF0C800A6
:10583C004FF0000100F0B0FA4FF040004FF00001C3
:10584C0000F0AAFA4FF02C004FF0000100F0A4FA7F
:10585C004FF0320001F008FA4FF02E004FF000012B
:10586C0000F09AFA4FF0320001F0FEF94FF02F00E1
:10587C004FF0000100F090FA4FF00A0001F0F4F93B
:10588C004FF026004FF0000100F086FA4FF0A40014
:10589C004FF0000100F080FA4FF0AF004FF0000124
:1058AC0000F07AFA4FF081004FF0000100F074FA2A
:1058BC004FF03F004FF0000100F06EFA40F25C73C5
:1058CC00C2F200034FF480621A6040F26073C2F2BD
:1058DC0000034FF000021A6000F012F840F26473FB
:1058EC00C2F200034FF000021A7040F25873C2F279
:1058FC0000034FF000021A6007F14807BD4680BD57
:10590C0080B500AF40F25833C2F200031A464FF490
:10591C00806310464FF000011A4601F0B7FA40F2CE
:10592C005C73C2F200034FF000021A6040F2607325
:10593C00C2F2000340F2FF321A6080BD80B483B023
:10594C0000AF02460B46FA71BB71FB790E2B02D9E4
:10595C004FF001031CE0BB79062B02D94FF0010379
:10596C0016E0FB7903F1FF3213464FEA43039B1811
:10597C004FEA43031A46BB7903F1FF334FEAC313D3
:10598C00D21840F25873C2F200031A604FF00003B1
:10599C00184607F10C07BD4680BC704790B486B022
:1059AC0000AF02460B46FA71BB7140F25873C2F25B
:1059BC0000031A6840F25C73C2F200031B689A423F
:1059CC0009DA40F25873C2F200031A6840F25C73B1
:1059DC00C2F200031A60BB791F2B02D9BB797B2B57
:1059EC0002D94FF05C03BB71FB79012B33D14FF023
:1059FC000003FB7526E040F25873C2F200031968ED
:105A0C00BB79A3F12000FC7D46F64072C0F6000283
:105A1C0003464FEA83031B181B19D3181B784FEA54
:105A2C004303DAB240F25833C2F200035A5401F184
:105A3C00010240F25873C2F200031A60FB7D03F1BD
:105A4C000103FB75FB7D042B8CBF00230123DBB210
:105A5C00002BD0D1FEE0FB79022B40F0FB8040F212
:105A6C005873C2F200031B68A3F154033B6140F26C
:105A7C005C73C2F200031B683A699A4205DA40F281
:105A8C005C73C2F200033A691A603B69002B02DABC
:105A9C004FF0010321E14FF00003FB75B5E0BB793A
:105AAC00A3F12001F87D46F64072C0F600020B46C9
:105ABC004FEA83035B181B18D3181B784FEA430378
:105ACC00FB73FB7B03F00103DBB21A464FEA420285
